{
	"test.sol": {
		"TestTransferMoney": {
			"abi": [
				{
					"inputs": [],
					"stateMutability": "nonpayable",
					"type": "constructor"
				},
				{
					"inputs": [],
					"name": "getBalance",
					"outputs": [
						{
							"internalType": "uint256",
							"name": "",
							"type": "uint256"
						}
					],
					"stateMutability": "view",
					"type": "function"
				},
				{
					"inputs": [],
					"name": "receiveMoney",
					"outputs": [],
					"stateMutability": "payable",
					"type": "function"
				},
				{
					"inputs": [
						{
							"internalType": "bool",
							"name": "_paused",
							"type": "bool"
						}
					],
					"name": "setPaused",
					"outputs": [],
					"stateMutability": "nonpayable",
					"type": "function"
				},
				{
					"inputs": [],
					"name": "smartBalance",
					"outputs": [
						{
							"internalType": "uint256",
							"name": "",
							"type": "uint256"
						}
					],
					"stateMutability": "view",
					"type": "function"
				},
				{
					"inputs": [],
					"name": "withdrawMoney",
					"outputs": [],
					"stateMutability": "nonpayable",
					"type": "function"
				},
				{
					"inputs": [
						{
							"internalType": "address payable",
							"name": "_to",
							"type": "address"
						}
					],
					"name": "withdrawMoneyTo2",
					"outputs": [],
					"stateMutability": "nonpayable",
					"type": "function"
				}
			],
			"devdoc": {
				"kind": "dev",
				"methods": {},
				"version": 1
			},
			"evm": {
				"assembly": "    /* \"test.sol\":27:897  contract TestTransferMoney {\r... */\n  mstore(0x40, 0x80)\n    /* \"test.sol\":136:194  constructor() public {\r... */\n  callvalue\n  dup1\n  iszero\n  tag_1\n  jumpi\n  0x00\n  dup1\n  revert\ntag_1:\n  pop\n    /* \"test.sol\":176:186  msg.sender */\n  caller\n    /* \"test.sol\":168:173  owner */\n  0x01\n  0x00\n    /* \"test.sol\":168:186  owner = msg.sender */\n  0x0100\n  exp\n  dup2\n  sload\n  dup2\n  0xffffffffffffffffffffffffffffffffffffffff\n  mul\n  not\n  and\n  swap1\n  dup4\n  0xffffffffffffffffffffffffffffffffffffffff\n  and\n  mul\n  or\n  swap1\n  sstore\n  pop\n    /* \"test.sol\":27:897  contract TestTransferMoney {\r... */\n  dataSize(sub_0)\n  dup1\n  dataOffset(sub_0)\n  0x00\n  codecopy\n  0x00\n  return\nstop\n\nsub_0: assembly {\n        /* \"test.sol\":27:897  contract TestTransferMoney {\r... */\n      mstore(0x40, 0x80)\n      jumpi(tag_1, lt(calldatasize, 0x04))\n      shr(0xe0, calldataload(0x00))\n      dup1\n      0x12065fe0\n      eq\n      tag_2\n      jumpi\n      dup1\n      0x16c38b3c\n      eq\n      tag_3\n      jumpi\n      dup1\n      0x28421bf7\n      eq\n      tag_4\n      jumpi\n      dup1\n      0x3a87b3c0\n      eq\n      tag_5\n      jumpi\n      dup1\n      0x6d26ec18\n      eq\n      tag_6\n      jumpi\n      dup1\n      0xac446002\n      eq\n      tag_7\n      jumpi\n    tag_1:\n      0x00\n      dup1\n      revert\n        /* \"test.sol\":656:752  function getBalance() public view returns(uint) {\r... */\n    tag_2:\n      callvalue\n      dup1\n      iszero\n      tag_8\n      jumpi\n      0x00\n      dup1\n      revert\n    tag_8:\n      pop\n      tag_9\n      tag_10\n      jump\t// in\n    tag_9:\n      mload(0x40)\n      tag_11\n      swap2\n      swap1\n      tag_12\n      jump\t// in\n    tag_11:\n      mload(0x40)\n      dup1\n      swap2\n      sub\n      swap1\n      return\n        /* \"test.sol\":202:337  function setPaused(bool _paused) public {\r... */\n    tag_3:\n      callvalue\n      dup1\n      iszero\n      tag_13\n      jumpi\n      0x00\n      dup1\n      revert\n    tag_13:\n      pop\n      tag_14\n      0x04\n      dup1\n      calldatasize\n      sub\n      dup2\n      add\n      swap1\n      tag_15\n      swap2\n      swap1\n      tag_16\n      jump\t// in\n    tag_15:\n      tag_17\n      jump\t// in\n    tag_14:\n      stop\n        /* \"test.sol\":63:87  uint public smartBalance */\n    tag_4:\n      callvalue\n      dup1\n      iszero\n      tag_18\n      jumpi\n      0x00\n      dup1\n      revert\n    tag_18:\n      pop\n      tag_19\n      tag_20\n      jump\t// in\n    tag_19:\n      mload(0x40)\n      tag_21\n      swap2\n      swap1\n      tag_12\n      jump\t// in\n    tag_21:\n      mload(0x40)\n      dup1\n      swap2\n      sub\n      swap1\n      return\n        /* \"test.sol\":345:558  function withdrawMoneyTo2(address payable _to) public {\r... */\n    tag_5:\n      callvalue\n      dup1\n      iszero\n      tag_22\n      jumpi\n      0x00\n      dup1\n      revert\n    tag_22:\n      pop\n      tag_23\n      0x04\n      dup1\n      calldatasize\n      sub\n      dup2\n      add\n      swap1\n      tag_24\n      swap2\n      swap1\n      tag_25\n      jump\t// in\n    tag_24:\n      tag_26\n      jump\t// in\n    tag_23:\n      stop\n        /* \"test.sol\":566:648  function receiveMoney() public payable {\r... */\n    tag_6:\n      tag_27\n      tag_28\n      jump\t// in\n    tag_27:\n      stop\n        /* \"test.sol\":760:894  function withdrawMoney() public {\r... */\n    tag_7:\n      callvalue\n      dup1\n      iszero\n      tag_29\n      jumpi\n      0x00\n      dup1\n      revert\n    tag_29:\n      pop\n      tag_30\n      tag_31\n      jump\t// in\n    tag_30:\n      stop\n        /* \"test.sol\":656:752  function getBalance() public view returns(uint) {\r... */\n    tag_10:\n        /* \"test.sol\":698:702  uint */\n      0x00\n        /* \"test.sol\":723:744  address(this).balance */\n      selfbalance\n        /* \"test.sol\":716:744  return address(this).balance */\n      swap1\n      pop\n        /* \"test.sol\":656:752  function getBalance() public view returns(uint) {\r... */\n      swap1\n      jump\t// out\n        /* \"test.sol\":202:337  function setPaused(bool _paused) public {\r... */\n    tag_17:\n        /* \"test.sol\":275:280  owner */\n      0x01\n      0x00\n      swap1\n      sload\n      swap1\n      0x0100\n      exp\n      swap1\n      div\n      0xffffffffffffffffffffffffffffffffffffffff\n      and\n        /* \"test.sol\":261:280  msg.sender == owner */\n      0xffffffffffffffffffffffffffffffffffffffff\n      and\n        /* \"test.sol\":261:271  msg.sender */\n      caller\n        /* \"test.sol\":261:280  msg.sender == owner */\n      0xffffffffffffffffffffffffffffffffffffffff\n      and\n      eq\n        /* \"test.sol\":253:302  require(msg.sender == owner, \"you are not owner\") */\n      tag_34\n      jumpi\n      mload(0x40)\n      0x08c379a000000000000000000000000000000000000000000000000000000000\n      dup2\n      mstore\n      0x04\n      add\n      tag_35\n      swap1\n      tag_36\n      jump\t// in\n    tag_35:\n      mload(0x40)\n      dup1\n      swap2\n      sub\n      swap1\n      revert\n    tag_34:\n        /* \"test.sol\":322:329  _paused */\n      dup1\n        /* \"test.sol\":313:319  paused */\n      0x01\n      0x14\n        /* \"test.sol\":313:329  paused = _paused */\n      0x0100\n      exp\n      dup2\n      sload\n      dup2\n      0xff\n      mul\n      not\n      and\n      swap1\n      dup4\n      iszero\n      iszero\n      mul\n      or\n      swap1\n      sstore\n      pop\n        /* \"test.sol\":202:337  function setPaused(bool _paused) public {\r... */\n      pop\n      jump\t// out\n        /* \"test.sol\":63:87  uint public smartBalance */\n    tag_20:\n      sload(0x00)\n      dup2\n      jump\t// out\n        /* \"test.sol\":345:558  function withdrawMoneyTo2(address payable _to) public {\r... */\n    tag_26:\n        /* \"test.sol\":432:437  owner */\n      0x01\n      0x00\n      swap1\n      sload\n      swap1\n      0x0100\n      exp\n      swap1\n      div\n      0xffffffffffffffffffffffffffffffffffffffff\n      and\n        /* \"test.sol\":418:437  msg.sender == owner */\n      0xffffffffffffffffffffffffffffffffffffffff\n      and\n        /* \"test.sol\":418:428  msg.sender */\n      caller\n        /* \"test.sol\":418:437  msg.sender == owner */\n      0xffffffffffffffffffffffffffffffffffffffff\n      and\n      eq\n        /* \"test.sol\":410:459  require(msg.sender == owner, \"yor are not owner\") */\n      tag_38\n      jumpi\n      mload(0x40)\n      0x08c379a000000000000000000000000000000000000000000000000000000000\n      dup2\n      mstore\n      0x04\n      add\n      tag_39\n      swap1\n      tag_40\n      jump\t// in\n    tag_39:\n      mload(0x40)\n      dup1\n      swap2\n      sub\n      swap1\n      revert\n    tag_38:\n        /* \"test.sol\":479:485  paused */\n      0x01\n      0x14\n      swap1\n      sload\n      swap1\n      0x0100\n      exp\n      swap1\n      div\n      0xff\n      and\n        /* \"test.sol\":478:485  !paused */\n      iszero\n        /* \"test.sol\":470:508  require(!paused, \"contract is paused\") */\n      tag_41\n      jumpi\n      mload(0x40)\n      0x08c379a000000000000000000000000000000000000000000000000000000000\n      dup2\n      mstore\n      0x04\n      add\n      tag_42\n      swap1\n      tag_43\n      jump\t// in\n    tag_42:\n      mload(0x40)\n      dup1\n      swap2\n      sub\n      swap1\n      revert\n    tag_41:\n        /* \"test.sol\":519:522  _to */\n      dup1\n        /* \"test.sol\":519:531  _to.transfer */\n      0xffffffffffffffffffffffffffffffffffffffff\n      and\n        /* \"test.sol\":519:550  _to.transfer(this.getBalance()) */\n      0x08fc\n        /* \"test.sol\":532:536  this */\n      address\n        /* \"test.sol\":532:547  this.getBalance */\n      0xffffffffffffffffffffffffffffffffffffffff\n      and\n      0x12065fe0\n        /* \"test.sol\":532:549  this.getBalance() */\n      mload(0x40)\n      dup2\n      0xffffffff\n      and\n      0xe0\n      shl\n      dup2\n      mstore\n      0x04\n      add\n      0x20\n      mload(0x40)\n      dup1\n      dup4\n      sub\n      dup2\n      dup7\n      dup1\n      extcodesize\n      iszero\n      dup1\n      iszero\n      tag_44\n      jumpi\n      0x00\n      dup1\n      revert\n    tag_44:\n      pop\n      gas\n      staticcall\n      iszero\n      dup1\n      iszero\n      tag_46\n      jumpi\n      returndatasize\n      0x00\n      dup1\n      returndatacopy\n      revert(0x00, returndatasize)\n    tag_46:\n      pop\n      pop\n      pop\n      pop\n      mload(0x40)\n      returndatasize\n      not(0x1f)\n      0x1f\n      dup3\n      add\n      and\n      dup3\n      add\n      dup1\n      0x40\n      mstore\n      pop\n      dup2\n      add\n      swap1\n      tag_47\n      swap2\n      swap1\n      tag_48\n      jump\t// in\n    tag_47:\n        /* \"test.sol\":519:550  _to.transfer(this.getBalance()) */\n      swap1\n      dup2\n      iszero\n      mul\n      swap1\n      mload(0x40)\n      0x00\n      mload(0x40)\n      dup1\n      dup4\n      sub\n      dup2\n      dup6\n      dup9\n      dup9\n      call\n      swap4\n      pop\n      pop\n      pop\n      pop\n      iszero\n      dup1\n      iszero\n      tag_50\n      jumpi\n      returndatasize\n      0x00\n      dup1\n      returndatacopy\n      revert(0x00, returndatasize)\n    tag_50:\n      pop\n        /* \"test.sol\":345:558  function withdrawMoneyTo2(address payable _to) public {\r... */\n      pop\n      jump\t// out\n        /* \"test.sol\":566:648  function receiveMoney() public payable {\r... */\n    tag_28:\n        /* \"test.sol\":631:640  msg.value */\n      callvalue\n        /* \"test.sol\":615:627  smartBalance */\n      0x00\n      dup1\n        /* \"test.sol\":615:640  smartBalance += msg.value */\n      dup3\n      dup3\n      sload\n      tag_52\n      swap2\n      swap1\n      tag_53\n      jump\t// in\n    tag_52:\n      swap3\n      pop\n      pop\n      dup2\n      swap1\n      sstore\n      pop\n        /* \"test.sol\":566:648  function receiveMoney() public payable {\r... */\n      jump\t// out\n        /* \"test.sol\":760:894  function withdrawMoney() public {\r... */\n    tag_31:\n        /* \"test.sol\":803:822  address payable _to */\n      0x00\n        /* \"test.sol\":833:843  msg.sender */\n      caller\n        /* \"test.sol\":803:844  address payable _to = payable(msg.sender) */\n      swap1\n      pop\n        /* \"test.sol\":855:858  _to */\n      dup1\n        /* \"test.sol\":855:867  _to.transfer */\n      0xffffffffffffffffffffffffffffffffffffffff\n      and\n        /* \"test.sol\":855:886  _to.transfer(this.getBalance()) */\n      0x08fc\n        /* \"test.sol\":868:872  this */\n      address\n        /* \"test.sol\":868:883  this.getBalance */\n      0xffffffffffffffffffffffffffffffffffffffff\n      and\n      0x12065fe0\n        /* \"test.sol\":868:885  this.getBalance() */\n      mload(0x40)\n      dup2\n      0xffffffff\n      and\n      0xe0\n      shl\n      dup2\n      mstore\n      0x04\n      add\n      0x20\n      mload(0x40)\n      dup1\n      dup4\n      sub\n      dup2\n      dup7\n      dup1\n      extcodesize\n      iszero\n      dup1\n      iszero\n      tag_55\n      jumpi\n      0x00\n      dup1\n      revert\n    tag_55:\n      pop\n      gas\n      staticcall\n      iszero\n      dup1\n      iszero\n      tag_57\n      jumpi\n      returndatasize\n      0x00\n      dup1\n      returndatacopy\n      revert(0x00, returndatasize)\n    tag_57:\n      pop\n      pop\n      pop\n      pop\n      mload(0x40)\n      returndatasize\n      not(0x1f)\n      0x1f\n      dup3\n      add\n      and\n      dup3\n      add\n      dup1\n      0x40\n      mstore\n      pop\n      dup2\n      add\n      swap1\n      tag_58\n      swap2\n      swap1\n      tag_48\n      jump\t// in\n    tag_58:\n        /* \"test.sol\":855:886  _to.transfer(this.getBalance()) */\n      swap1\n      dup2\n      iszero\n      mul\n      swap1\n      mload(0x40)\n      0x00\n      mload(0x40)\n      dup1\n      dup4\n      sub\n      dup2\n      dup6\n      dup9\n      dup9\n      call\n      swap4\n      pop\n      pop\n      pop\n      pop\n      iszero\n      dup1\n      iszero\n      tag_60\n      jumpi\n      returndatasize\n      0x00\n      dup1\n      returndatacopy\n      revert(0x00, returndatasize)\n    tag_60:\n      pop\n        /* \"test.sol\":792:894  {\r... */\n      pop\n        /* \"test.sol\":760:894  function withdrawMoney() public {\r... */\n      jump\t// out\n        /* \"#utility.yul\":7:162   */\n    tag_62:\n        /* \"#utility.yul\":61:66   */\n      0x00\n        /* \"#utility.yul\":99:105   */\n      dup2\n        /* \"#utility.yul\":86:106   */\n      calldataload\n        /* \"#utility.yul\":77:106   */\n      swap1\n      pop\n        /* \"#utility.yul\":115:156   */\n      tag_64\n        /* \"#utility.yul\":150:155   */\n      dup2\n        /* \"#utility.yul\":115:156   */\n      tag_65\n      jump\t// in\n    tag_64:\n        /* \"#utility.yul\":7:162   */\n      swap3\n      swap2\n      pop\n      pop\n      jump\t// out\n        /* \"#utility.yul\":168:301   */\n    tag_66:\n        /* \"#utility.yul\":211:216   */\n      0x00\n        /* \"#utility.yul\":249:255   */\n      dup2\n        /* \"#utility.yul\":236:256   */\n      calldataload\n        /* \"#utility.yul\":227:256   */\n      swap1\n      pop\n        /* \"#utility.yul\":265:295   */\n      tag_68\n        /* \"#utility.yul\":289:294   */\n      dup2\n        /* \"#utility.yul\":265:295   */\n      tag_69\n      jump\t// in\n    tag_68:\n        /* \"#utility.yul\":168:301   */\n      swap3\n      swap2\n      pop\n      pop\n      jump\t// out\n        /* \"#utility.yul\":307:450   */\n    tag_70:\n        /* \"#utility.yul\":364:369   */\n      0x00\n        /* \"#utility.yul\":395:401   */\n      dup2\n        /* \"#utility.yul\":389:402   */\n      mload\n        /* \"#utility.yul\":380:402   */\n      swap1\n      pop\n        /* \"#utility.yul\":411:444   */\n      tag_72\n        /* \"#utility.yul\":438:443   */\n      dup2\n        /* \"#utility.yul\":411:444   */\n      tag_73\n      jump\t// in\n    tag_72:\n        /* \"#utility.yul\":307:450   */\n      swap3\n      swap2\n      pop\n      pop\n      jump\t// out\n        /* \"#utility.yul\":456:801   */\n    tag_25:\n        /* \"#utility.yul\":523:529   */\n      0x00\n        /* \"#utility.yul\":572:574   */\n      0x20\n        /* \"#utility.yul\":560:569   */\n      dup3\n        /* \"#utility.yul\":551:558   */\n      dup5\n        /* \"#utility.yul\":547:570   */\n      sub\n        /* \"#utility.yul\":543:575   */\n      slt\n        /* \"#utility.yul\":540:659   */\n      iszero\n      tag_75\n      jumpi\n        /* \"#utility.yul\":578:657   */\n      tag_76\n      tag_77\n      jump\t// in\n    tag_76:\n        /* \"#utility.yul\":540:659   */\n    tag_75:\n        /* \"#utility.yul\":698:699   */\n      0x00\n        /* \"#utility.yul\":723:784   */\n      tag_78\n        /* \"#utility.yul\":776:783   */\n      dup5\n        /* \"#utility.yul\":767:773   */\n      dup3\n        /* \"#utility.yul\":756:765   */\n      dup6\n        /* \"#utility.yul\":752:774   */\n      add\n        /* \"#utility.yul\":723:784   */\n      tag_62\n      jump\t// in\n    tag_78:\n        /* \"#utility.yul\":713:784   */\n      swap2\n      pop\n        /* \"#utility.yul\":669:794   */\n      pop\n        /* \"#utility.yul\":456:801   */\n      swap3\n      swap2\n      pop\n      pop\n      jump\t// out\n        /* \"#utility.yul\":807:1130   */\n    tag_16:\n        /* \"#utility.yul\":863:869   */\n      0x00\n        /* \"#utility.yul\":912:914   */\n      0x20\n        /* \"#utility.yul\":900:909   */\n      dup3\n        /* \"#utility.yul\":891:898   */\n      dup5\n        /* \"#utility.yul\":887:910   */\n      sub\n        /* \"#utility.yul\":883:915   */\n      slt\n        /* \"#utility.yul\":880:999   */\n      iszero\n      tag_80\n      jumpi\n        /* \"#utility.yul\":918:997   */\n      tag_81\n      tag_77\n      jump\t// in\n    tag_81:\n        /* \"#utility.yul\":880:999   */\n    tag_80:\n        /* \"#utility.yul\":1038:1039   */\n      0x00\n        /* \"#utility.yul\":1063:1113   */\n      tag_82\n        /* \"#utility.yul\":1105:1112   */\n      dup5\n        /* \"#utility.yul\":1096:1102   */\n      dup3\n        /* \"#utility.yul\":1085:1094   */\n      dup6\n        /* \"#utility.yul\":1081:1103   */\n      add\n        /* \"#utility.yul\":1063:1113   */\n      tag_66\n      jump\t// in\n    tag_82:\n        /* \"#utility.yul\":1053:1113   */\n      swap2\n      pop\n        /* \"#utility.yul\":1009:1123   */\n      pop\n        /* \"#utility.yul\":807:1130   */\n      swap3\n      swap2\n      pop\n      pop\n      jump\t// out\n        /* \"#utility.yul\":1136:1487   */\n    tag_48:\n        /* \"#utility.yul\":1206:1212   */\n      0x00\n        /* \"#utility.yul\":1255:1257   */\n      0x20\n        /* \"#utility.yul\":1243:1252   */\n      dup3\n        /* \"#utility.yul\":1234:1241   */\n      dup5\n        /* \"#utility.yul\":1230:1253   */\n      sub\n        /* \"#utility.yul\":1226:1258   */\n      slt\n        /* \"#utility.yul\":1223:1342   */\n      iszero\n      tag_84\n      jumpi\n        /* \"#utility.yul\":1261:1340   */\n      tag_85\n      tag_77\n      jump\t// in\n    tag_85:\n        /* \"#utility.yul\":1223:1342   */\n    tag_84:\n        /* \"#utility.yul\":1381:1382   */\n      0x00\n        /* \"#utility.yul\":1406:1470   */\n      tag_86\n        /* \"#utility.yul\":1462:1469   */\n      dup5\n        /* \"#utility.yul\":1453:1459   */\n      dup3\n        /* \"#utility.yul\":1442:1451   */\n      dup6\n        /* \"#utility.yul\":1438:1460   */\n      add\n        /* \"#utility.yul\":1406:1470   */\n      tag_70\n      jump\t// in\n    tag_86:\n        /* \"#utility.yul\":1396:1470   */\n      swap2\n      pop\n        /* \"#utility.yul\":1352:1480   */\n      pop\n        /* \"#utility.yul\":1136:1487   */\n      swap3\n      swap2\n      pop\n      pop\n      jump\t// out\n        /* \"#utility.yul\":1493:1859   */\n    tag_87:\n        /* \"#utility.yul\":1635:1638   */\n      0x00\n        /* \"#utility.yul\":1656:1723   */\n      tag_89\n        /* \"#utility.yul\":1720:1722   */\n      0x12\n        /* \"#utility.yul\":1715:1718   */\n      dup4\n        /* \"#utility.yul\":1656:1723   */\n      tag_90\n      jump\t// in\n    tag_89:\n        /* \"#utility.yul\":1649:1723   */\n      swap2\n      pop\n        /* \"#utility.yul\":1732:1825   */\n      tag_91\n        /* \"#utility.yul\":1821:1824   */\n      dup3\n        /* \"#utility.yul\":1732:1825   */\n      tag_92\n      jump\t// in\n    tag_91:\n        /* \"#utility.yul\":1850:1852   */\n      0x20\n        /* \"#utility.yul\":1845:1848   */\n      dup3\n        /* \"#utility.yul\":1841:1853   */\n      add\n        /* \"#utility.yul\":1834:1853   */\n      swap1\n      pop\n        /* \"#utility.yul\":1493:1859   */\n      swap2\n      swap1\n      pop\n      jump\t// out\n        /* \"#utility.yul\":1865:2231   */\n    tag_93:\n        /* \"#utility.yul\":2007:2010   */\n      0x00\n        /* \"#utility.yul\":2028:2095   */\n      tag_95\n        /* \"#utility.yul\":2092:2094   */\n      0x11\n        /* \"#utility.yul\":2087:2090   */\n      dup4\n        /* \"#utility.yul\":2028:2095   */\n      tag_90\n      jump\t// in\n    tag_95:\n        /* \"#utility.yul\":2021:2095   */\n      swap2\n      pop\n        /* \"#utility.yul\":2104:2197   */\n      tag_96\n        /* \"#utility.yul\":2193:2196   */\n      dup3\n        /* \"#utility.yul\":2104:2197   */\n      tag_97\n      jump\t// in\n    tag_96:\n        /* \"#utility.yul\":2222:2224   */\n      0x20\n        /* \"#utility.yul\":2217:2220   */\n      dup3\n        /* \"#utility.yul\":2213:2225   */\n      add\n        /* \"#utility.yul\":2206:2225   */\n      swap1\n      pop\n        /* \"#utility.yul\":1865:2231   */\n      swap2\n      swap1\n      pop\n      jump\t// out\n        /* \"#utility.yul\":2237:2603   */\n    tag_98:\n        /* \"#utility.yul\":2379:2382   */\n      0x00\n        /* \"#utility.yul\":2400:2467   */\n      tag_100\n        /* \"#utility.yul\":2464:2466   */\n      0x11\n        /* \"#utility.yul\":2459:2462   */\n      dup4\n        /* \"#utility.yul\":2400:2467   */\n      tag_90\n      jump\t// in\n    tag_100:\n        /* \"#utility.yul\":2393:2467   */\n      swap2\n      pop\n        /* \"#utility.yul\":2476:2569   */\n      tag_101\n        /* \"#utility.yul\":2565:2568   */\n      dup3\n        /* \"#utility.yul\":2476:2569   */\n      tag_102\n      jump\t// in\n    tag_101:\n        /* \"#utility.yul\":2594:2596   */\n      0x20\n        /* \"#utility.yul\":2589:2592   */\n      dup3\n        /* \"#utility.yul\":2585:2597   */\n      add\n        /* \"#utility.yul\":2578:2597   */\n      swap1\n      pop\n        /* \"#utility.yul\":2237:2603   */\n      swap2\n      swap1\n      pop\n      jump\t// out\n        /* \"#utility.yul\":2609:2727   */\n    tag_103:\n        /* \"#utility.yul\":2696:2720   */\n      tag_105\n        /* \"#utility.yul\":2714:2719   */\n      dup2\n        /* \"#utility.yul\":2696:2720   */\n      tag_106\n      jump\t// in\n    tag_105:\n        /* \"#utility.yul\":2691:2694   */\n      dup3\n        /* \"#utility.yul\":2684:2721   */\n      mstore\n        /* \"#utility.yul\":2609:2727   */\n      pop\n      pop\n      jump\t// out\n        /* \"#utility.yul\":2733:3152   */\n    tag_43:\n        /* \"#utility.yul\":2899:2903   */\n      0x00\n        /* \"#utility.yul\":2937:2939   */\n      0x20\n        /* \"#utility.yul\":2926:2935   */\n      dup3\n        /* \"#utility.yul\":2922:2940   */\n      add\n        /* \"#utility.yul\":2914:2940   */\n      swap1\n      pop\n        /* \"#utility.yul\":2986:2995   */\n      dup2\n        /* \"#utility.yul\":2980:2984   */\n      dup2\n        /* \"#utility.yul\":2976:2996   */\n      sub\n        /* \"#utility.yul\":2972:2973   */\n      0x00\n        /* \"#utility.yul\":2961:2970   */\n      dup4\n        /* \"#utility.yul\":2957:2974   */\n      add\n        /* \"#utility.yul\":2950:2997   */\n      mstore\n        /* \"#utility.yul\":3014:3145   */\n      tag_108\n        /* \"#utility.yul\":3140:3144   */\n      dup2\n        /* \"#utility.yul\":3014:3145   */\n      tag_87\n      jump\t// in\n    tag_108:\n        /* \"#utility.yul\":3006:3145   */\n      swap1\n      pop\n        /* \"#utility.yul\":2733:3152   */\n      swap2\n      swap1\n      pop\n      jump\t// out\n        /* \"#utility.yul\":3158:3577   */\n    tag_40:\n        /* \"#utility.yul\":3324:3328   */\n      0x00\n        /* \"#utility.yul\":3362:3364   */\n      0x20\n        /* \"#utility.yul\":3351:3360   */\n      dup3\n        /* \"#utility.yul\":3347:3365   */\n      add\n        /* \"#utility.yul\":3339:3365   */\n      swap1\n      pop\n        /* \"#utility.yul\":3411:3420   */\n      dup2\n        /* \"#utility.yul\":3405:3409   */\n      dup2\n        /* \"#utility.yul\":3401:3421   */\n      sub\n        /* \"#utility.yul\":3397:3398   */\n      0x00\n        /* \"#utility.yul\":3386:3395   */\n      dup4\n        /* \"#utility.yul\":3382:3399   */\n      add\n        /* \"#utility.yul\":3375:3422   */\n      mstore\n        /* \"#utility.yul\":3439:3570   */\n      tag_110\n        /* \"#utility.yul\":3565:3569   */\n      dup2\n        /* \"#utility.yul\":3439:3570   */\n      tag_93\n      jump\t// in\n    tag_110:\n        /* \"#utility.yul\":3431:3570   */\n      swap1\n      pop\n        /* \"#utility.yul\":3158:3577   */\n      swap2\n      swap1\n      pop\n      jump\t// out\n        /* \"#utility.yul\":3583:4002   */\n    tag_36:\n        /* \"#utility.yul\":3749:3753   */\n      0x00\n        /* \"#utility.yul\":3787:3789   */\n      0x20\n        /* \"#utility.yul\":3776:3785   */\n      dup3\n        /* \"#utility.yul\":3772:3790   */\n      add\n        /* \"#utility.yul\":3764:3790   */\n      swap1\n      pop\n        /* \"#utility.yul\":3836:3845   */\n      dup2\n        /* \"#utility.yul\":3830:3834   */\n      dup2\n        /* \"#utility.yul\":3826:3846   */\n      sub\n        /* \"#utility.yul\":3822:3823   */\n      0x00\n        /* \"#utility.yul\":3811:3820   */\n      dup4\n        /* \"#utility.yul\":3807:3824   */\n      add\n        /* \"#utility.yul\":3800:3847   */\n      mstore\n        /* \"#utility.yul\":3864:3995   */\n      tag_112\n        /* \"#utility.yul\":3990:3994   */\n      dup2\n        /* \"#utility.yul\":3864:3995   */\n      tag_98\n      jump\t// in\n    tag_112:\n        /* \"#utility.yul\":3856:3995   */\n      swap1\n      pop\n        /* \"#utility.yul\":3583:4002   */\n      swap2\n      swap1\n      pop\n      jump\t// out\n        /* \"#utility.yul\":4008:4230   */\n    tag_12:\n        /* \"#utility.yul\":4101:4105   */\n      0x00\n        /* \"#utility.yul\":4139:4141   */\n      0x20\n        /* \"#utility.yul\":4128:4137   */\n      dup3\n        /* \"#utility.yul\":4124:4142   */\n      add\n        /* \"#utility.yul\":4116:4142   */\n      swap1\n      pop\n        /* \"#utility.yul\":4152:4223   */\n      tag_114\n        /* \"#utility.yul\":4220:4221   */\n      0x00\n        /* \"#utility.yul\":4209:4218   */\n      dup4\n        /* \"#utility.yul\":4205:4222   */\n      add\n        /* \"#utility.yul\":4196:4202   */\n      dup5\n        /* \"#utility.yul\":4152:4223   */\n      tag_103\n      jump\t// in\n    tag_114:\n        /* \"#utility.yul\":4008:4230   */\n      swap3\n      swap2\n      pop\n      pop\n      jump\t// out\n        /* \"#utility.yul\":4317:4486   */\n    tag_90:\n        /* \"#utility.yul\":4401:4412   */\n      0x00\n        /* \"#utility.yul\":4435:4441   */\n      dup3\n        /* \"#utility.yul\":4430:4433   */\n      dup3\n        /* \"#utility.yul\":4423:4442   */\n      mstore\n        /* \"#utility.yul\":4475:4479   */\n      0x20\n        /* \"#utility.yul\":4470:4473   */\n      dup3\n        /* \"#utility.yul\":4466:4480   */\n      add\n        /* \"#utility.yul\":4451:4480   */\n      swap1\n      pop\n        /* \"#utility.yul\":4317:4486   */\n      swap3\n      swap2\n      pop\n      pop\n      jump\t// out\n        /* \"#utility.yul\":4492:4797   */\n    tag_53:\n        /* \"#utility.yul\":4532:4535   */\n      0x00\n        /* \"#utility.yul\":4551:4571   */\n      tag_119\n        /* \"#utility.yul\":4569:4570   */\n      dup3\n        /* \"#utility.yul\":4551:4571   */\n      tag_106\n      jump\t// in\n    tag_119:\n        /* \"#utility.yul\":4546:4571   */\n      swap2\n      pop\n        /* \"#utility.yul\":4585:4605   */\n      tag_120\n        /* \"#utility.yul\":4603:4604   */\n      dup4\n        /* \"#utility.yul\":4585:4605   */\n      tag_106\n      jump\t// in\n    tag_120:\n        /* \"#utility.yul\":4580:4605   */\n      swap3\n      pop\n        /* \"#utility.yul\":4739:4740   */\n      dup3\n        /* \"#utility.yul\":4671:4737   */\n      0xffffffffffffffffffffffffffffffffffffffffffffffffffffffffffffffff\n        /* \"#utility.yul\":4667:4741   */\n      sub\n        /* \"#utility.yul\":4664:4665   */\n      dup3\n        /* \"#utility.yul\":4661:4742   */\n      gt\n        /* \"#utility.yul\":4658:4765   */\n      iszero\n      tag_121\n      jumpi\n        /* \"#utility.yul\":4745:4763   */\n      tag_122\n      tag_123\n      jump\t// in\n    tag_122:\n        /* \"#utility.yul\":4658:4765   */\n    tag_121:\n        /* \"#utility.yul\":4789:4790   */\n      dup3\n        /* \"#utility.yul\":4786:4787   */\n      dup3\n        /* \"#utility.yul\":4782:4791   */\n      add\n        /* \"#utility.yul\":4775:4791   */\n      swap1\n      pop\n        /* \"#utility.yul\":4492:4797   */\n      swap3\n      swap2\n      pop\n      pop\n      jump\t// out\n        /* \"#utility.yul\":4803:4907   */\n    tag_124:\n        /* \"#utility.yul\":4848:4855   */\n      0x00\n        /* \"#utility.yul\":4877:4901   */\n      tag_126\n        /* \"#utility.yul\":4895:4900   */\n      dup3\n        /* \"#utility.yul\":4877:4901   */\n      tag_127\n      jump\t// in\n    tag_126:\n        /* \"#utility.yul\":4866:4901   */\n      swap1\n      pop\n        /* \"#utility.yul\":4803:4907   */\n      swap2\n      swap1\n      pop\n      jump\t// out\n        /* \"#utility.yul\":4913:5003   */\n    tag_128:\n        /* \"#utility.yul\":4947:4954   */\n      0x00\n        /* \"#utility.yul\":4990:4995   */\n      dup2\n        /* \"#utility.yul\":4983:4996   */\n      iszero\n        /* \"#utility.yul\":4976:4997   */\n      iszero\n        /* \"#utility.yul\":4965:4997   */\n      swap1\n      pop\n        /* \"#utility.yul\":4913:5003   */\n      swap2\n      swap1\n      pop\n      jump\t// out\n        /* \"#utility.yul\":5009:5135   */\n    tag_127:\n        /* \"#utility.yul\":5046:5053   */\n      0x00\n        /* \"#utility.yul\":5086:5128   */\n      0xffffffffffffffffffffffffffffffffffffffff\n        /* \"#utility.yul\":5079:5084   */\n      dup3\n        /* \"#utility.yul\":5075:5129   */\n      and\n        /* \"#utility.yul\":5064:5129   */\n      swap1\n      pop\n        /* \"#utility.yul\":5009:5135   */\n      swap2\n      swap1\n      pop\n      jump\t// out\n        /* \"#utility.yul\":5141:5218   */\n    tag_106:\n        /* \"#utility.yul\":5178:5185   */\n      0x00\n        /* \"#utility.yul\":5207:5212   */\n      dup2\n        /* \"#utility.yul\":5196:5212   */\n      swap1\n      pop\n        /* \"#utility.yul\":5141:5218   */\n      swap2\n      swap1\n      pop\n      jump\t// out\n        /* \"#utility.yul\":5224:5404   */\n    tag_123:\n        /* \"#utility.yul\":5272:5349   */\n      0x4e487b7100000000000000000000000000000000000000000000000000000000\n        /* \"#utility.yul\":5269:5270   */\n      0x00\n        /* \"#utility.yul\":5262:5350   */\n      mstore\n        /* \"#utility.yul\":5369:5373   */\n      0x11\n        /* \"#utility.yul\":5366:5367   */\n      0x04\n        /* \"#utility.yul\":5359:5374   */\n      mstore\n        /* \"#utility.yul\":5393:5397   */\n      0x24\n        /* \"#utility.yul\":5390:5391   */\n      0x00\n        /* \"#utility.yul\":5383:5398   */\n      revert\n        /* \"#utility.yul\":5533:5650   */\n    tag_77:\n        /* \"#utility.yul\":5642:5643   */\n      0x00\n        /* \"#utility.yul\":5639:5640   */\n      dup1\n        /* \"#utility.yul\":5632:5644   */\n      revert\n        /* \"#utility.yul\":5656:5824   */\n    tag_92:\n        /* \"#utility.yul\":5796:5816   */\n      0x636f6e7472616374206973207061757365640000000000000000000000000000\n        /* \"#utility.yul\":5792:5793   */\n      0x00\n        /* \"#utility.yul\":5784:5790   */\n      dup3\n        /* \"#utility.yul\":5780:5794   */\n      add\n        /* \"#utility.yul\":5773:5817   */\n      mstore\n        /* \"#utility.yul\":5656:5824   */\n      pop\n      jump\t// out\n        /* \"#utility.yul\":5830:5997   */\n    tag_97:\n        /* \"#utility.yul\":5970:5989   */\n      0x796f7220617265206e6f74206f776e6572000000000000000000000000000000\n        /* \"#utility.yul\":5966:5967   */\n      0x00\n        /* \"#utility.yul\":5958:5964   */\n      dup3\n        /* \"#utility.yul\":5954:5968   */\n      add\n        /* \"#utility.yul\":5947:5990   */\n      mstore\n        /* \"#utility.yul\":5830:5997   */\n      pop\n      jump\t// out\n        /* \"#utility.yul\":6003:6170   */\n    tag_102:\n        /* \"#utility.yul\":6143:6162   */\n      0x796f7520617265206e6f74206f776e6572000000000000000000000000000000\n        /* \"#utility.yul\":6139:6140   */\n      0x00\n        /* \"#utility.yul\":6131:6137   */\n      dup3\n        /* \"#utility.yul\":6127:6141   */\n      add\n        /* \"#utility.yul\":6120:6163   */\n      mstore\n        /* \"#utility.yul\":6003:6170   */\n      pop\n      jump\t// out\n        /* \"#utility.yul\":6176:6314   */\n    tag_65:\n        /* \"#utility.yul\":6257:6289   */\n      tag_140\n        /* \"#utility.yul\":6283:6288   */\n      dup2\n        /* \"#utility.yul\":6257:6289   */\n      tag_124\n      jump\t// in\n    tag_140:\n        /* \"#utility.yul\":6250:6255   */\n      dup2\n        /* \"#utility.yul\":6247:6290   */\n      eq\n        /* \"#utility.yul\":6237:6308   */\n      tag_141\n      jumpi\n        /* \"#utility.yul\":6304:6305   */\n      0x00\n        /* \"#utility.yul\":6301:6302   */\n      dup1\n        /* \"#utility.yul\":6294:6306   */\n      revert\n        /* \"#utility.yul\":6237:6308   */\n    tag_141:\n        /* \"#utility.yul\":6176:6314   */\n      pop\n      jump\t// out\n        /* \"#utility.yul\":6320:6436   */\n    tag_69:\n        /* \"#utility.yul\":6390:6411   */\n      tag_143\n        /* \"#utility.yul\":6405:6410   */\n      dup2\n        /* \"#utility.yul\":6390:6411   */\n      tag_128\n      jump\t// in\n    tag_143:\n        /* \"#utility.yul\":6383:6388   */\n      dup2\n        /* \"#utility.yul\":6380:6412   */\n      eq\n        /* \"#utility.yul\":6370:6430   */\n      tag_144\n      jumpi\n        /* \"#utility.yul\":6426:6427   */\n      0x00\n        /* \"#utility.yul\":6423:6424   */\n      dup1\n        /* \"#utility.yul\":6416:6428   */\n      revert\n        /* \"#utility.yul\":6370:6430   */\n    tag_144:\n        /* \"#utility.yul\":6320:6436   */\n      pop\n      jump\t// out\n        /* \"#utility.yul\":6442:6564   */\n    tag_73:\n        /* \"#utility.yul\":6515:6539   */\n      tag_146\n        /* \"#utility.yul\":6533:6538   */\n      dup2\n        /* \"#utility.yul\":6515:6539   */\n      tag_106\n      jump\t// in\n    tag_146:\n        /* \"#utility.yul\":6508:6513   */\n      dup2\n        /* \"#utility.yul\":6505:6540   */\n      eq\n        /* \"#utility.yul\":6495:6558   */\n      tag_147\n      jumpi\n        /* \"#utility.yul\":6554:6555   */\n      0x00\n        /* \"#utility.yul\":6551:6552   */\n      dup1\n        /* \"#utility.yul\":6544:6556   */\n      revert\n        /* \"#utility.yul\":6495:6558   */\n    tag_147:\n        /* \"#utility.yul\":6442:6564   */\n      pop\n      jump\t// out\n\n    auxdata: 0xa26469706673582212205e24e6b715c0182191b3e14d0c25e80349109e1f837b31cbfe00a2e949df49cc64736f6c63430008070033\n}\n",
				"bytecode": {
					"linkReferences": {},
					"object": "608060405234801561001057600080fd5b5033600160006101000a81548173ffffffffffffffffffffffffffffffffffffffff021916908373ffffffffffffffffffffffffffffffffffffffff1602179055506107fd806100616000396000f3fe6080604052600436106100555760003560e01c806312065fe01461005a57806316c38b3c1461008557806328421bf7146100ae5780633a87b3c0146100d95780636d26ec1814610102578063ac4460021461010c575b600080fd5b34801561006657600080fd5b5061006f610123565b60405161007c9190610609565b60405180910390f35b34801561009157600080fd5b506100ac60048036038101906100a791906104d7565b61012b565b005b3480156100ba57600080fd5b506100c36101d8565b6040516100d09190610609565b60405180910390f35b3480156100e557600080fd5b5061010060048036038101906100fb91906104aa565b6101de565b005b61010a610385565b005b34801561011857600080fd5b5061012161039f565b005b600047905090565b600160009054906101000a900473ffffffffffffffffffffffffffffffffffffffff1673ffffffffffffffffffffffffffffffffffffffff163373ffffffffffffffffffffffffffffffffffffffff16146101bb576040517f08c379a00000000000000000000000000000000000000000000000000000000081526004016101b2906105e9565b60405180910390fd5b80600160146101000a81548160ff02191690831515021790555050565b60005481565b600160009054906101000a900473ffffffffffffffffffffffffffffffffffffffff1673ffffffffffffffffffffffffffffffffffffffff163373ffffffffffffffffffffffffffffffffffffffff161461026e576040517f08c379a0000000000000000000000000000000000000000000000000000000008152600401610265906105c9565b60405180910390fd5b600160149054906101000a900460ff16156102be576040517f08c379a00000000000000000000000000000000000000000000000000000000081526004016102b5906105a9565b60405180910390fd5b8073ffffffffffffffffffffffffffffffffffffffff166108fc3073ffffffffffffffffffffffffffffffffffffffff166312065fe06040518163ffffffff1660e01b815260040160206040518083038186803b15801561031e57600080fd5b505afa158015610332573d6000803e3d6000fd5b505050506040513d601f19601f820116820180604052508101906103569190610504565b9081150290604051600060405180830381858888f19350505050158015610381573d6000803e3d6000fd5b5050565b346000808282546103969190610635565b92505081905550565b60003390508073ffffffffffffffffffffffffffffffffffffffff166108fc3073ffffffffffffffffffffffffffffffffffffffff166312065fe06040518163ffffffff1660e01b815260040160206040518083038186803b15801561040457600080fd5b505afa158015610418573d6000803e3d6000fd5b505050506040513d601f19601f8201168201806040525081019061043c9190610504565b9081150290604051600060405180830381858888f19350505050158015610467573d6000803e3d6000fd5b5050565b60008135905061047a81610782565b92915050565b60008135905061048f81610799565b92915050565b6000815190506104a4816107b0565b92915050565b6000602082840312156104c0576104bf610702565b5b60006104ce8482850161046b565b91505092915050565b6000602082840312156104ed576104ec610702565b5b60006104fb84828501610480565b91505092915050565b60006020828403121561051a57610519610702565b5b600061052884828501610495565b91505092915050565b600061053e601283610624565b915061054982610707565b602082019050919050565b6000610561601183610624565b915061056c82610730565b602082019050919050565b6000610584601183610624565b915061058f82610759565b602082019050919050565b6105a3816106c9565b82525050565b600060208201905081810360008301526105c281610531565b9050919050565b600060208201905081810360008301526105e281610554565b9050919050565b6000602082019050818103600083015261060281610577565b9050919050565b600060208201905061061e600083018461059a565b92915050565b600082825260208201905092915050565b6000610640826106c9565b915061064b836106c9565b9250827fffffffffffffffffffffffffffffffffffffffffffffffffffffffffffffffff038211156106805761067f6106d3565b5b828201905092915050565b6000610696826106a9565b9050919050565b60008115159050919050565b600073ffffffffffffffffffffffffffffffffffffffff82169050919050565b6000819050919050565b7f4e487b7100000000000000000000000000000000000000000000000000000000600052601160045260246000fd5b600080fd5b7f636f6e7472616374206973207061757365640000000000000000000000000000600082015250565b7f796f7220617265206e6f74206f776e6572000000000000000000000000000000600082015250565b7f796f7520617265206e6f74206f776e6572000000000000000000000000000000600082015250565b61078b8161068b565b811461079657600080fd5b50565b6107a28161069d565b81146107ad57600080fd5b50565b6107b9816106c9565b81146107c457600080fd5b5056fea26469706673582212205e24e6b715c0182191b3e14d0c25e80349109e1f837b31cbfe00a2e949df49cc64736f6c63430008070033",
					"opcodes": "PUSH1 0x80 PUSH1 0x40 MSTORE CALLVALUE DUP1 ISZERO PUSH2 0x10 JUMPI PUSH1 0x0 DUP1 REVERT JUMPDEST POP CALLER PUSH1 0x1 PUSH1 0x0 PUSH2 0x100 EXP DUP2 SLOAD DUP2 PUSH20 0xFFFFFFFFFFFFFFFFFFFFFFFFFFFFFFFFFFFFFFFF MUL NOT AND SWAP1 DUP4 PUSH20 0xFFFFFFFFFFFFFFFFFFFFFFFFFFFFFFFFFFFFFFFF AND MUL OR SWAP1 SSTORE POP PUSH2 0x7FD DUP1 PUSH2 0x61 PUSH1 0x0 CODECOPY PUSH1 0x0 RETURN INVALID PUSH1 0x80 PUSH1 0x40 MSTORE PUSH1 0x4 CALLDATASIZE LT PUSH2 0x55 JUMPI PUSH1 0x0 CALLDATALOAD PUSH1 0xE0 SHR DUP1 PUSH4 0x12065FE0 EQ PUSH2 0x5A JUMPI DUP1 PUSH4 0x16C38B3C EQ PUSH2 0x85 JUMPI DUP1 PUSH4 0x28421BF7 EQ PUSH2 0xAE JUMPI DUP1 PUSH4 0x3A87B3C0 EQ PUSH2 0xD9 JUMPI DUP1 PUSH4 0x6D26EC18 EQ PUSH2 0x102 JUMPI DUP1 PUSH4 0xAC446002 EQ PUSH2 0x10C JUMPI JUMPDEST PUSH1 0x0 DUP1 REVERT JUMPDEST CALLVALUE DUP1 ISZERO PUSH2 0x66 JUMPI PUSH1 0x0 DUP1 REVERT JUMPDEST POP PUSH2 0x6F PUSH2 0x123 JUMP JUMPDEST PUSH1 0x40 MLOAD PUSH2 0x7C SWAP2 SWAP1 PUSH2 0x609 JUMP JUMPDEST PUSH1 0x40 MLOAD DUP1 SWAP2 SUB SWAP1 RETURN JUMPDEST CALLVALUE DUP1 ISZERO PUSH2 0x91 JUMPI PUSH1 0x0 DUP1 REVERT JUMPDEST POP PUSH2 0xAC PUSH1 0x4 DUP1 CALLDATASIZE SUB DUP2 ADD SWAP1 PUSH2 0xA7 SWAP2 SWAP1 PUSH2 0x4D7 JUMP JUMPDEST PUSH2 0x12B JUMP JUMPDEST STOP JUMPDEST CALLVALUE DUP1 ISZERO PUSH2 0xBA JUMPI PUSH1 0x0 DUP1 REVERT JUMPDEST POP PUSH2 0xC3 PUSH2 0x1D8 JUMP JUMPDEST PUSH1 0x40 MLOAD PUSH2 0xD0 SWAP2 SWAP1 PUSH2 0x609 JUMP JUMPDEST PUSH1 0x40 MLOAD DUP1 SWAP2 SUB SWAP1 RETURN JUMPDEST CALLVALUE DUP1 ISZERO PUSH2 0xE5 JUMPI PUSH1 0x0 DUP1 REVERT JUMPDEST POP PUSH2 0x100 PUSH1 0x4 DUP1 CALLDATASIZE SUB DUP2 ADD SWAP1 PUSH2 0xFB SWAP2 SWAP1 PUSH2 0x4AA JUMP JUMPDEST PUSH2 0x1DE JUMP JUMPDEST STOP JUMPDEST PUSH2 0x10A PUSH2 0x385 JUMP JUMPDEST STOP JUMPDEST CALLVALUE DUP1 ISZERO PUSH2 0x118 JUMPI PUSH1 0x0 DUP1 REVERT JUMPDEST POP PUSH2 0x121 PUSH2 0x39F JUMP JUMPDEST STOP JUMPDEST PUSH1 0x0 SELFBALANCE SWAP1 POP SWAP1 JUMP JUMPDEST PUSH1 0x1 PUSH1 0x0 SWAP1 SLOAD SWAP1 PUSH2 0x100 EXP SWAP1 DIV PUSH20 0xFFFFFFFFFFFFFFFFFFFFFFFFFFFFFFFFFFFFFFFF AND PUSH20 0xFFFFFFFFFFFFFFFFFFFFFFFFFFFFFFFFFFFFFFFF AND CALLER PUSH20 0xFFFFFFFFFFFFFFFFFFFFFFFFFFFFFFFFFFFFFFFF AND EQ PUSH2 0x1BB JUMPI PUSH1 0x40 MLOAD PUSH32 0x8C379A000000000000000000000000000000000000000000000000000000000 DUP2 MSTORE PUSH1 0x4 ADD PUSH2 0x1B2 SWAP1 PUSH2 0x5E9 JUMP JUMPDEST PUSH1 0x40 MLOAD DUP1 SWAP2 SUB SWAP1 REVERT JUMPDEST DUP1 PUSH1 0x1 PUSH1 0x14 PUSH2 0x100 EXP DUP2 SLOAD DUP2 PUSH1 0xFF MUL NOT AND SWAP1 DUP4 ISZERO ISZERO MUL OR SWAP1 SSTORE POP POP JUMP JUMPDEST PUSH1 0x0 SLOAD DUP2 JUMP JUMPDEST PUSH1 0x1 PUSH1 0x0 SWAP1 SLOAD SWAP1 PUSH2 0x100 EXP SWAP1 DIV PUSH20 0xFFFFFFFFFFFFFFFFFFFFFFFFFFFFFFFFFFFFFFFF AND PUSH20 0xFFFFFFFFFFFFFFFFFFFFFFFFFFFFFFFFFFFFFFFF AND CALLER PUSH20 0xFFFFFFFFFFFFFFFFFFFFFFFFFFFFFFFFFFFFFFFF AND EQ PUSH2 0x26E JUMPI PUSH1 0x40 MLOAD PUSH32 0x8C379A000000000000000000000000000000000000000000000000000000000 DUP2 MSTORE PUSH1 0x4 ADD PUSH2 0x265 SWAP1 PUSH2 0x5C9 JUMP JUMPDEST PUSH1 0x40 MLOAD DUP1 SWAP2 SUB SWAP1 REVERT JUMPDEST PUSH1 0x1 PUSH1 0x14 SWAP1 SLOAD SWAP1 PUSH2 0x100 EXP SWAP1 DIV PUSH1 0xFF AND ISZERO PUSH2 0x2BE JUMPI PUSH1 0x40 MLOAD PUSH32 0x8C379A000000000000000000000000000000000000000000000000000000000 DUP2 MSTORE PUSH1 0x4 ADD PUSH2 0x2B5 SWAP1 PUSH2 0x5A9 JUMP JUMPDEST PUSH1 0x40 MLOAD DUP1 SWAP2 SUB SWAP1 REVERT JUMPDEST DUP1 PUSH20 0xFFFFFFFFFFFFFFFFFFFFFFFFFFFFFFFFFFFFFFFF AND PUSH2 0x8FC ADDRESS PUSH20 0xFFFFFFFFFFFFFFFFFFFFFFFFFFFFFFFFFFFFFFFF AND PUSH4 0x12065FE0 PUSH1 0x40 MLOAD DUP2 PUSH4 0xFFFFFFFF AND PUSH1 0xE0 SHL DUP2 MSTORE PUSH1 0x4 ADD PUSH1 0x20 PUSH1 0x40 MLOAD DUP1 DUP4 SUB DUP2 DUP7 DUP1 EXTCODESIZE ISZERO DUP1 ISZERO PUSH2 0x31E JUMPI PUSH1 0x0 DUP1 REVERT JUMPDEST POP GAS STATICCALL ISZERO DUP1 ISZERO PUSH2 0x332 JUMPI RETURNDATASIZE PUSH1 0x0 DUP1 RETURNDATACOPY RETURNDATASIZE PUSH1 0x0 REVERT JUMPDEST POP POP POP POP PUSH1 0x40 MLOAD RETURNDATASIZE PUSH1 0x1F NOT PUSH1 0x1F DUP3 ADD AND DUP3 ADD DUP1 PUSH1 0x40 MSTORE POP DUP2 ADD SWAP1 PUSH2 0x356 SWAP2 SWAP1 PUSH2 0x504 JUMP JUMPDEST SWAP1 DUP2 ISZERO MUL SWAP1 PUSH1 0x40 MLOAD PUSH1 0x0 PUSH1 0x40 MLOAD DUP1 DUP4 SUB DUP2 DUP6 DUP9 DUP9 CALL SWAP4 POP POP POP POP ISZERO DUP1 ISZERO PUSH2 0x381 JUMPI RETURNDATASIZE PUSH1 0x0 DUP1 RETURNDATACOPY RETURNDATASIZE PUSH1 0x0 REVERT JUMPDEST POP POP JUMP JUMPDEST CALLVALUE PUSH1 0x0 DUP1 DUP3 DUP3 SLOAD PUSH2 0x396 SWAP2 SWAP1 PUSH2 0x635 JUMP JUMPDEST SWAP3 POP POP DUP2 SWAP1 SSTORE POP JUMP JUMPDEST PUSH1 0x0 CALLER SWAP1 POP DUP1 PUSH20 0xFFFFFFFFFFFFFFFFFFFFFFFFFFFFFFFFFFFFFFFF AND PUSH2 0x8FC ADDRESS PUSH20 0xFFFFFFFFFFFFFFFFFFFFFFFFFFFFFFFFFFFFFFFF AND PUSH4 0x12065FE0 PUSH1 0x40 MLOAD DUP2 PUSH4 0xFFFFFFFF AND PUSH1 0xE0 SHL DUP2 MSTORE PUSH1 0x4 ADD PUSH1 0x20 PUSH1 0x40 MLOAD DUP1 DUP4 SUB DUP2 DUP7 DUP1 EXTCODESIZE ISZERO DUP1 ISZERO PUSH2 0x404 JUMPI PUSH1 0x0 DUP1 REVERT JUMPDEST POP GAS STATICCALL ISZERO DUP1 ISZERO PUSH2 0x418 JUMPI RETURNDATASIZE PUSH1 0x0 DUP1 RETURNDATACOPY RETURNDATASIZE PUSH1 0x0 REVERT JUMPDEST POP POP POP POP PUSH1 0x40 MLOAD RETURNDATASIZE PUSH1 0x1F NOT PUSH1 0x1F DUP3 ADD AND DUP3 ADD DUP1 PUSH1 0x40 MSTORE POP DUP2 ADD SWAP1 PUSH2 0x43C SWAP2 SWAP1 PUSH2 0x504 JUMP JUMPDEST SWAP1 DUP2 ISZERO MUL SWAP1 PUSH1 0x40 MLOAD PUSH1 0x0 PUSH1 0x40 MLOAD DUP1 DUP4 SUB DUP2 DUP6 DUP9 DUP9 CALL SWAP4 POP POP POP POP ISZERO DUP1 ISZERO PUSH2 0x467 JUMPI RETURNDATASIZE PUSH1 0x0 DUP1 RETURNDATACOPY RETURNDATASIZE PUSH1 0x0 REVERT JUMPDEST POP POP JUMP JUMPDEST PUSH1 0x0 DUP2 CALLDATALOAD SWAP1 POP PUSH2 0x47A DUP2 PUSH2 0x782 JUMP JUMPDEST SWAP3 SWAP2 POP POP JUMP JUMPDEST PUSH1 0x0 DUP2 CALLDATALOAD SWAP1 POP PUSH2 0x48F DUP2 PUSH2 0x799 JUMP JUMPDEST SWAP3 SWAP2 POP POP JUMP JUMPDEST PUSH1 0x0 DUP2 MLOAD SWAP1 POP PUSH2 0x4A4 DUP2 PUSH2 0x7B0 JUMP JUMPDEST SWAP3 SWAP2 POP POP JUMP JUMPDEST PUSH1 0x0 PUSH1 0x20 DUP3 DUP5 SUB SLT ISZERO PUSH2 0x4C0 JUMPI PUSH2 0x4BF PUSH2 0x702 JUMP JUMPDEST JUMPDEST PUSH1 0x0 PUSH2 0x4CE DUP5 DUP3 DUP6 ADD PUSH2 0x46B JUMP JUMPDEST SWAP2 POP POP SWAP3 SWAP2 POP POP JUMP JUMPDEST PUSH1 0x0 PUSH1 0x20 DUP3 DUP5 SUB SLT ISZERO PUSH2 0x4ED JUMPI PUSH2 0x4EC PUSH2 0x702 JUMP JUMPDEST JUMPDEST PUSH1 0x0 PUSH2 0x4FB DUP5 DUP3 DUP6 ADD PUSH2 0x480 JUMP JUMPDEST SWAP2 POP POP SWAP3 SWAP2 POP POP JUMP JUMPDEST PUSH1 0x0 PUSH1 0x20 DUP3 DUP5 SUB SLT ISZERO PUSH2 0x51A JUMPI PUSH2 0x519 PUSH2 0x702 JUMP JUMPDEST JUMPDEST PUSH1 0x0 PUSH2 0x528 DUP5 DUP3 DUP6 ADD PUSH2 0x495 JUMP JUMPDEST SWAP2 POP POP SWAP3 SWAP2 POP POP JUMP JUMPDEST PUSH1 0x0 PUSH2 0x53E PUSH1 0x12 DUP4 PUSH2 0x624 JUMP JUMPDEST SWAP2 POP PUSH2 0x549 DUP3 PUSH2 0x707 JUMP JUMPDEST PUSH1 0x20 DUP3 ADD SWAP1 POP SWAP2 SWAP1 POP JUMP JUMPDEST PUSH1 0x0 PUSH2 0x561 PUSH1 0x11 DUP4 PUSH2 0x624 JUMP JUMPDEST SWAP2 POP PUSH2 0x56C DUP3 PUSH2 0x730 JUMP JUMPDEST PUSH1 0x20 DUP3 ADD SWAP1 POP SWAP2 SWAP1 POP JUMP JUMPDEST PUSH1 0x0 PUSH2 0x584 PUSH1 0x11 DUP4 PUSH2 0x624 JUMP JUMPDEST SWAP2 POP PUSH2 0x58F DUP3 PUSH2 0x759 JUMP JUMPDEST PUSH1 0x20 DUP3 ADD SWAP1 POP SWAP2 SWAP1 POP JUMP JUMPDEST PUSH2 0x5A3 DUP2 PUSH2 0x6C9 JUMP JUMPDEST DUP3 MSTORE POP POP JUMP JUMPDEST PUSH1 0x0 PUSH1 0x20 DUP3 ADD SWAP1 POP DUP2 DUP2 SUB PUSH1 0x0 DUP4 ADD MSTORE PUSH2 0x5C2 DUP2 PUSH2 0x531 JUMP JUMPDEST SWAP1 POP SWAP2 SWAP1 POP JUMP JUMPDEST PUSH1 0x0 PUSH1 0x20 DUP3 ADD SWAP1 POP DUP2 DUP2 SUB PUSH1 0x0 DUP4 ADD MSTORE PUSH2 0x5E2 DUP2 PUSH2 0x554 JUMP JUMPDEST SWAP1 POP SWAP2 SWAP1 POP JUMP JUMPDEST PUSH1 0x0 PUSH1 0x20 DUP3 ADD SWAP1 POP DUP2 DUP2 SUB PUSH1 0x0 DUP4 ADD MSTORE PUSH2 0x602 DUP2 PUSH2 0x577 JUMP JUMPDEST SWAP1 POP SWAP2 SWAP1 POP JUMP JUMPDEST PUSH1 0x0 PUSH1 0x20 DUP3 ADD SWAP1 POP PUSH2 0x61E PUSH1 0x0 DUP4 ADD DUP5 PUSH2 0x59A JUMP JUMPDEST SWAP3 SWAP2 POP POP JUMP JUMPDEST PUSH1 0x0 DUP3 DUP3 MSTORE PUSH1 0x20 DUP3 ADD SWAP1 POP SWAP3 SWAP2 POP POP JUMP JUMPDEST PUSH1 0x0 PUSH2 0x640 DUP3 PUSH2 0x6C9 JUMP JUMPDEST SWAP2 POP PUSH2 0x64B DUP4 PUSH2 0x6C9 JUMP JUMPDEST SWAP3 POP DUP3 PUSH32 0xFFFFFFFFFFFFFFFFFFFFFFFFFFFFFFFFFFFFFFFFFFFFFFFFFFFFFFFFFFFFFFFF SUB DUP3 GT ISZERO PUSH2 0x680 JUMPI PUSH2 0x67F PUSH2 0x6D3 JUMP JUMPDEST JUMPDEST DUP3 DUP3 ADD SWAP1 POP SWAP3 SWAP2 POP POP JUMP JUMPDEST PUSH1 0x0 PUSH2 0x696 DUP3 PUSH2 0x6A9 JUMP JUMPDEST SWAP1 POP SWAP2 SWAP1 POP JUMP JUMPDEST PUSH1 0x0 DUP2 ISZERO ISZERO SWAP1 POP SWAP2 SWAP1 POP JUMP JUMPDEST PUSH1 0x0 PUSH20 0xFFFFFFFFFFFFFFFFFFFFFFFFFFFFFFFFFFFFFFFF DUP3 AND SWAP1 POP SWAP2 SWAP1 POP JUMP JUMPDEST PUSH1 0x0 DUP2 SWAP1 POP SWAP2 SWAP1 POP JUMP JUMPDEST PUSH32 0x4E487B7100000000000000000000000000000000000000000000000000000000 PUSH1 0x0 MSTORE PUSH1 0x11 PUSH1 0x4 MSTORE PUSH1 0x24 PUSH1 0x0 REVERT JUMPDEST PUSH1 0x0 DUP1 REVERT JUMPDEST PUSH32 0x636F6E7472616374206973207061757365640000000000000000000000000000 PUSH1 0x0 DUP3 ADD MSTORE POP JUMP JUMPDEST PUSH32 0x796F7220617265206E6F74206F776E6572000000000000000000000000000000 PUSH1 0x0 DUP3 ADD MSTORE POP JUMP JUMPDEST PUSH32 0x796F7520617265206E6F74206F776E6572000000000000000000000000000000 PUSH1 0x0 DUP3 ADD MSTORE POP JUMP JUMPDEST PUSH2 0x78B DUP2 PUSH2 0x68B JUMP JUMPDEST DUP2 EQ PUSH2 0x796 JUMPI PUSH1 0x0 DUP1 REVERT JUMPDEST POP JUMP JUMPDEST PUSH2 0x7A2 DUP2 PUSH2 0x69D JUMP JUMPDEST DUP2 EQ PUSH2 0x7AD JUMPI PUSH1 0x0 DUP1 REVERT JUMPDEST POP JUMP JUMPDEST PUSH2 0x7B9 DUP2 PUSH2 0x6C9 JUMP JUMPDEST DUP2 EQ PUSH2 0x7C4 JUMPI PUSH1 0x0 DUP1 REVERT JUMPDEST POP JUMP INVALID LOG2 PUSH5 0x6970667358 0x22 SLT KECCAK256 0x5E 0x24 0xE6 0xB7 ISZERO 0xC0 XOR 0x21 SWAP2 0xB3 0xE1 0x4D 0xC 0x25 0xE8 SUB 0x49 LT SWAP15 0x1F DUP4 PUSH28 0x31CBFE00A2E949DF49CC64736F6C6343000807003300000000000000 "
				},
				"gasEstimates": {
					"creation": {
						"codeDepositCost": "409000",
						"executionCost": "24709",
						"totalCost": "433709"
					},
					"external": {
						"getBalance()": "317",
						"receiveMoney()": "infinite",
						"setPaused(bool)": "26899",
						"smartBalance()": "2451",
						"withdrawMoney()": "infinite",
						"withdrawMoneyTo2(address)": "infinite"
					}
				},
				"methodIdentifiers": {
					"getBalance()": "12065fe0",
					"receiveMoney()": "6d26ec18",
					"setPaused(bool)": "16c38b3c",
					"smartBalance()": "28421bf7",
					"withdrawMoney()": "ac446002",
					"withdrawMoneyTo2(address)": "3a87b3c0"
				}
			},
			"storageLayout": {
				"storage": [
					{
						"astId": 3,
						"contract": "test.sol:TestTransferMoney",
						"label": "smartBalance",
						"offset": 0,
						"slot": "0",
						"type": "t_uint256"
					},
					{
						"astId": 5,
						"contract": "test.sol:TestTransferMoney",
						"label": "owner",
						"offset": 0,
						"slot": "1",
						"type": "t_address"
					},
					{
						"astId": 7,
						"contract": "test.sol:TestTransferMoney",
						"label": "paused",
						"offset": 20,
						"slot": "1",
						"type": "t_bool"
					}
				],
				"types": {
					"t_address": {
						"encoding": "inplace",
						"label": "address",
						"numberOfBytes": "20"
					},
					"t_bool": {
						"encoding": "inplace",
						"label": "bool",
						"numberOfBytes": "1"
					},
					"t_uint256": {
						"encoding": "inplace",
						"label": "uint256",
						"numberOfBytes": "32"
					}
				}
			},
			"userdoc": {
				"kind": "user",
				"methods": {},
				"version": 1
			}
		}
	}
}